{
  "contractName": "RolesMock",
  "abi": [
    {
      "constant": false,
      "inputs": [
        {
          "name": "account",
          "type": "address"
        }
      ],
      "name": "add",
      "outputs": [],
      "payable": false,
      "stateMutability": "nonpayable",
      "type": "function"
    },
    {
      "constant": false,
      "inputs": [
        {
          "name": "account",
          "type": "address"
        }
      ],
      "name": "remove",
      "outputs": [],
      "payable": false,
      "stateMutability": "nonpayable",
      "type": "function"
    },
    {
      "constant": true,
      "inputs": [
        {
          "name": "account",
          "type": "address"
        }
      ],
      "name": "has",
      "outputs": [
        {
          "name": "",
          "type": "bool"
        }
      ],
      "payable": false,
      "stateMutability": "view",
      "type": "function"
    }
  ],
  "bytecode": "0x608060405234801561001057600080fd5b506104e0806100206000396000f3fe608060405260043610610057576000357c0100000000000000000000000000000000000000000000000000000000900463ffffffff1680630a3b0a4f1461005c57806321887c3d146100ad57806329092d0e14610116575b600080fd5b34801561006857600080fd5b506100ab6004803603602081101561007f57600080fd5b81019080803573ffffffffffffffffffffffffffffffffffffffff169060200190929190505050610167565b005b3480156100b957600080fd5b506100fc600480360360208110156100d057600080fd5b81019080803573ffffffffffffffffffffffffffffffffffffffff16906020019092919050505061017e565b604051808215151515815260200191505060405180910390f35b34801561012257600080fd5b506101656004803603602081101561013957600080fd5b81019080803573ffffffffffffffffffffffffffffffffffffffff16906020019092919050505061019b565b005b61017b8160006101b290919063ffffffff16565b50565b600061019482600061028f90919063ffffffff16565b9050919050565b6101af8160006103b290919063ffffffff16565b50565b6101bc828261028f565b151515610231576040517f08c379a000000000000000000000000000000000000000000000000000000000815260040180806020018281038252601f8152602001807f526f6c65733a206163636f756e7420616c72656164792068617320726f6c650081525060200191505060405180910390fd5b60018260000160008373ffffffffffffffffffffffffffffffffffffffff1673ffffffffffffffffffffffffffffffffffffffff16815260200190815260200160002060006101000a81548160ff0219169083151502179055505050565b60008073ffffffffffffffffffffffffffffffffffffffff168273ffffffffffffffffffffffffffffffffffffffff161415151561035b576040517f08c379a00000000000000000000000000000000000000000000000000000000081526004018080602001828103825260228152602001807f526f6c65733a206163636f756e7420697320746865207a65726f20616464726581526020017f737300000000000000000000000000000000000000000000000000000000000081525060400191505060405180910390fd5b8260000160008373ffffffffffffffffffffffffffffffffffffffff1673ffffffffffffffffffffffffffffffffffffffff16815260200190815260200160002060009054906101000a900460ff16905092915050565b6103bc828261028f565b1515610456576040517f08c379a00000000000000000000000000000000000000000000000000000000081526004018080602001828103825260218152602001807f526f6c65733a206163636f756e7420646f6573206e6f74206861766520726f6c81526020017f650000000000000000000000000000000000000000000000000000000000000081525060400191505060405180910390fd5b60008260000160008373ffffffffffffffffffffffffffffffffffffffff1673ffffffffffffffffffffffffffffffffffffffff16815260200190815260200160002060006101000a81548160ff021916908315150217905550505056fea165627a7a7230582022abb346e43ad784b19bdc1738ceaa09d7e961e133102407ab357bef301379460029",
  "source": "pragma solidity ^0.5.0;\r\n\r\nimport \"../access/Roles.sol\";\r\n\r\ncontract RolesMock {\r\n    using Roles for Roles.Role;\r\n\r\n    Roles.Role private dummyRole;\r\n\r\n    function add(address account) public {\r\n        dummyRole.add(account);\r\n    }\r\n\r\n    function remove(address account) public {\r\n        dummyRole.remove(account);\r\n    }\r\n\r\n    function has(address account) public view returns (bool) {\r\n        return dummyRole.has(account);\r\n    }\r\n}",
  "sourcePath": "C:/Users/Lauri/Documents/projects/ScoreMilk/contracts/mocks/RolesMock.sol",
  "compiler": {
    "name": "solc",
    "version": "0.5.0+commit.1d4f565a.Emscripten.clang"
  },
  "schemaVersion": "3.2.5",
  "updatedAt": "2020-10-06T18:09:22.354Z",
  "devdoc": {
    "methods": {}
  },
  "userdoc": {
    "methods": {}
  }
}