{
  "contractName": "SafeMathMock",
  "abi": [
    {
      "constant": true,
      "inputs": [
        {
          "name": "a",
          "type": "uint256"
        },
        {
          "name": "b",
          "type": "uint256"
        }
      ],
      "name": "mul",
      "outputs": [
        {
          "name": "",
          "type": "uint256"
        }
      ],
      "payable": false,
      "stateMutability": "pure",
      "type": "function"
    },
    {
      "constant": true,
      "inputs": [
        {
          "name": "a",
          "type": "uint256"
        },
        {
          "name": "b",
          "type": "uint256"
        }
      ],
      "name": "div",
      "outputs": [
        {
          "name": "",
          "type": "uint256"
        }
      ],
      "payable": false,
      "stateMutability": "pure",
      "type": "function"
    },
    {
      "constant": true,
      "inputs": [
        {
          "name": "a",
          "type": "uint256"
        },
        {
          "name": "b",
          "type": "uint256"
        }
      ],
      "name": "sub",
      "outputs": [
        {
          "name": "",
          "type": "uint256"
        }
      ],
      "payable": false,
      "stateMutability": "pure",
      "type": "function"
    },
    {
      "constant": true,
      "inputs": [
        {
          "name": "a",
          "type": "uint256"
        },
        {
          "name": "b",
          "type": "uint256"
        }
      ],
      "name": "add",
      "outputs": [
        {
          "name": "",
          "type": "uint256"
        }
      ],
      "payable": false,
      "stateMutability": "pure",
      "type": "function"
    },
    {
      "constant": true,
      "inputs": [
        {
          "name": "a",
          "type": "uint256"
        },
        {
          "name": "b",
          "type": "uint256"
        }
      ],
      "name": "mod",
      "outputs": [
        {
          "name": "",
          "type": "uint256"
        }
      ],
      "payable": false,
      "stateMutability": "pure",
      "type": "function"
    }
  ],
  "bytecode": "0x608060405234801561001057600080fd5b50610745806100206000396000f3fe60806040526004361061006d576000357c0100000000000000000000000000000000000000000000000000000000900463ffffffff168063771602f714610072578063a391c15b146100cb578063b67d77c514610124578063c8a4ac9c1461017d578063f43f523a146101d6575b600080fd5b34801561007e57600080fd5b506100b56004803603604081101561009557600080fd5b81019080803590602001909291908035906020019092919050505061022f565b6040518082815260200191505060405180910390f35b3480156100d757600080fd5b5061010e600480360360408110156100ee57600080fd5b810190808035906020019092919080359060200190929190505050610243565b6040518082815260200191505060405180910390f35b34801561013057600080fd5b506101676004803603604081101561014757600080fd5b810190808035906020019092919080359060200190929190505050610257565b6040518082815260200191505060405180910390f35b34801561018957600080fd5b506101c0600480360360408110156101a057600080fd5b81019080803590602001909291908035906020019092919050505061026b565b6040518082815260200191505060405180910390f35b3480156101e257600080fd5b50610219600480360360408110156101f957600080fd5b81019080803590602001909291908035906020019092919050505061027f565b6040518082815260200191505060405180910390f35b600061023b8383610293565b905092915050565b600061024f838361031d565b905092915050565b60006102638383610367565b905092915050565b600061027783836103b1565b905092915050565b600061028b838361047e565b905092915050565b6000808284019050838110151515610313576040517f08c379a000000000000000000000000000000000000000000000000000000000815260040180806020018281038252601b8152602001807f536166654d6174683a206164646974696f6e206f766572666c6f77000000000081525060200191505060405180910390fd5b8091505092915050565b600061035f83836040805190810160405280601a81526020017f536166654d6174683a206469766973696f6e206279207a65726f0000000000008152506104c8565b905092915050565b60006103a983836040805190810160405280601e81526020017f536166654d6174683a207375627472616374696f6e206f766572666c6f770000815250610592565b905092915050565b6000808314156103c45760009050610478565b600082840290508284828115156103d757fe5b04141515610473576040517f08c379a00000000000000000000000000000000000000000000000000000000081526004018080602001828103825260218152602001807f536166654d6174683a206d756c7469706c69636174696f6e206f766572666c6f81526020017f770000000000000000000000000000000000000000000000000000000000000081525060400191505060405180910390fd5b809150505b92915050565b60006104c083836040805190810160405280601881526020017f536166654d6174683a206d6f64756c6f206279207a65726f0000000000000000815250610654565b905092915050565b600080831182901515610576576040517f08c379a00000000000000000000000000000000000000000000000000000000081526004018080602001828103825283818151815260200191508051906020019080838360005b8381101561053b578082015181840152602081019050610520565b50505050905090810190601f1680156105685780820380516001836020036101000a031916815260200191505b509250505060405180910390fd5b506000838581151561058457fe5b049050809150509392505050565b60008383111582901515610641576040517f08c379a00000000000000000000000000000000000000000000000000000000081526004018080602001828103825283818151815260200191508051906020019080838360005b838110156106065780820151818401526020810190506105eb565b50505050905090810190601f1680156106335780820380516001836020036101000a031916815260200191505b509250505060405180910390fd5b5060008385039050809150509392505050565b60008083141582901515610703576040517f08c379a00000000000000000000000000000000000000000000000000000000081526004018080602001828103825283818151815260200191508051906020019080838360005b838110156106c85780820151818401526020810190506106ad565b50505050905090810190601f1680156106f55780820380516001836020036101000a031916815260200191505b509250505060405180910390fd5b50828481151561070f57fe5b069050939250505056fea165627a7a72305820cd6b98104699cb515c65fa91beb26b69a45ca209e8dcbed382858c512ee1ccbf0029",
  "source": "pragma solidity ^0.5.0;\r\n\r\nimport \"../math/SafeMath.sol\";\r\n\r\ncontract SafeMathMock {\r\n    function mul(uint256 a, uint256 b) public pure returns (uint256) {\r\n        return SafeMath.mul(a, b);\r\n    }\r\n\r\n    function div(uint256 a, uint256 b) public pure returns (uint256) {\r\n        return SafeMath.div(a, b);\r\n    }\r\n\r\n    function sub(uint256 a, uint256 b) public pure returns (uint256) {\r\n        return SafeMath.sub(a, b);\r\n    }\r\n\r\n    function add(uint256 a, uint256 b) public pure returns (uint256) {\r\n        return SafeMath.add(a, b);\r\n    }\r\n\r\n    function mod(uint256 a, uint256 b) public pure returns (uint256) {\r\n        return SafeMath.mod(a, b);\r\n    }\r\n}",
  "sourcePath": "C:/Users/Lauri/Documents/projects/ScoreMilk/contracts/mocks/SafeMathMock.sol",
  "compiler": {
    "name": "solc",
    "version": "0.5.0+commit.1d4f565a.Emscripten.clang"
  },
  "schemaVersion": "3.2.5",
  "updatedAt": "2020-10-06T17:56:41.579Z",
  "devdoc": {
    "methods": {}
  },
  "userdoc": {
    "methods": {}
  }
}